{
  "_format": "hh-sol-artifact-1",
  "contractName": "DappAirBnb",
  "sourceName": "contracts/DappAirBnb.sol",
  "abi": [
    {
      "inputs": [
        {
          "internalType": "uint256",
          "name": "_taxPercent",
          "type": "uint256"
        },
        {
          "internalType": "uint256",
          "name": "_securityFee",
          "type": "uint256"
        }
      ],
      "stateMutability": "nonpayable",
      "type": "constructor"
    },
    {
      "anonymous": false,
      "inputs": [
        {
          "indexed": true,
          "internalType": "address",
          "name": "previousOwner",
          "type": "address"
        },
        {
          "indexed": true,
          "internalType": "address",
          "name": "newOwner",
          "type": "address"
        }
      ],
      "name": "OwnershipTransferred",
      "type": "event"
    },
    {
      "inputs": [
        {
          "internalType": "uint256",
          "name": "aid",
          "type": "uint256"
        },
        {
          "internalType": "string",
          "name": "comment",
          "type": "string"
        }
      ],
      "name": "addReview",
      "outputs": [],
      "stateMutability": "nonpayable",
      "type": "function"
    },
    {
      "inputs": [
        {
          "internalType": "uint256",
          "name": "aid",
          "type": "uint256"
        },
        {
          "internalType": "uint256[]",
          "name": "dates",
          "type": "uint256[]"
        }
      ],
      "name": "bookApartment",
      "outputs": [],
      "stateMutability": "payable",
      "type": "function"
    },
    {
      "inputs": [
        {
          "internalType": "uint256",
          "name": "aid",
          "type": "uint256"
        },
        {
          "internalType": "uint256",
          "name": "bookingId",
          "type": "uint256"
        }
      ],
      "name": "checkInApartment",
      "outputs": [],
      "stateMutability": "nonpayable",
      "type": "function"
    },
    {
      "inputs": [
        {
          "internalType": "uint256",
          "name": "aid",
          "type": "uint256"
        },
        {
          "internalType": "uint256",
          "name": "bookingId",
          "type": "uint256"
        }
      ],
      "name": "claimFunds",
      "outputs": [],
      "stateMutability": "nonpayable",
      "type": "function"
    },
    {
      "inputs": [
        {
          "internalType": "string",
          "name": "name",
          "type": "string"
        },
        {
          "internalType": "string",
          "name": "description",
          "type": "string"
        },
        {
          "internalType": "string",
          "name": "location",
          "type": "string"
        },
        {
          "internalType": "string",
          "name": "images",
          "type": "string"
        },
        {
          "internalType": "uint256",
          "name": "rooms",
          "type": "uint256"
        },
        {
          "internalType": "uint256",
          "name": "price",
          "type": "uint256"
        }
      ],
      "name": "createAppartment",
      "outputs": [],
      "stateMutability": "nonpayable",
      "type": "function"
    },
    {
      "inputs": [
        {
          "internalType": "uint256",
          "name": "id",
          "type": "uint256"
        }
      ],
      "name": "deleteAppartment",
      "outputs": [],
      "stateMutability": "nonpayable",
      "type": "function"
    },
    {
      "inputs": [
        {
          "internalType": "uint256",
          "name": "id",
          "type": "uint256"
        }
      ],
      "name": "getApartment",
      "outputs": [
        {
          "components": [
            {
              "internalType": "uint256",
              "name": "id",
              "type": "uint256"
            },
            {
              "internalType": "string",
              "name": "name",
              "type": "string"
            },
            {
              "internalType": "string",
              "name": "description",
              "type": "string"
            },
            {
              "internalType": "string",
              "name": "location",
              "type": "string"
            },
            {
              "internalType": "string",
              "name": "images",
              "type": "string"
            },
            {
              "internalType": "uint256",
              "name": "rooms",
              "type": "uint256"
            },
            {
              "internalType": "uint256",
              "name": "price",
              "type": "uint256"
            },
            {
              "internalType": "address",
              "name": "owner",
              "type": "address"
            },
            {
              "internalType": "bool",
              "name": "booked",
              "type": "bool"
            },
            {
              "internalType": "bool",
              "name": "deleted",
              "type": "bool"
            },
            {
              "internalType": "uint256",
              "name": "timestamp",
              "type": "uint256"
            }
          ],
          "internalType": "struct DappAirBnb.ApartmentStruct",
          "name": "",
          "type": "tuple"
        }
      ],
      "stateMutability": "view",
      "type": "function"
    },
    {
      "inputs": [],
      "name": "getApartments",
      "outputs": [
        {
          "components": [
            {
              "internalType": "uint256",
              "name": "id",
              "type": "uint256"
            },
            {
              "internalType": "string",
              "name": "name",
              "type": "string"
            },
            {
              "internalType": "string",
              "name": "description",
              "type": "string"
            },
            {
              "internalType": "string",
              "name": "location",
              "type": "string"
            },
            {
              "internalType": "string",
              "name": "images",
              "type": "string"
            },
            {
              "internalType": "uint256",
              "name": "rooms",
              "type": "uint256"
            },
            {
              "internalType": "uint256",
              "name": "price",
              "type": "uint256"
            },
            {
              "internalType": "address",
              "name": "owner",
              "type": "address"
            },
            {
              "internalType": "bool",
              "name": "booked",
              "type": "bool"
            },
            {
              "internalType": "bool",
              "name": "deleted",
              "type": "bool"
            },
            {
              "internalType": "uint256",
              "name": "timestamp",
              "type": "uint256"
            }
          ],
          "internalType": "struct DappAirBnb.ApartmentStruct[]",
          "name": "Apartments",
          "type": "tuple[]"
        }
      ],
      "stateMutability": "view",
      "type": "function"
    },
    {
      "inputs": [
        {
          "internalType": "uint256",
          "name": "aid",
          "type": "uint256"
        },
        {
          "internalType": "uint256",
          "name": "bookingId",
          "type": "uint256"
        }
      ],
      "name": "getBooking",
      "outputs": [
        {
          "components": [
            {
              "internalType": "uint256",
              "name": "id",
              "type": "uint256"
            },
            {
              "internalType": "uint256",
              "name": "aid",
              "type": "uint256"
            },
            {
              "internalType": "address",
              "name": "tenant",
              "type": "address"
            },
            {
              "internalType": "uint256",
              "name": "date",
              "type": "uint256"
            },
            {
              "internalType": "uint256",
              "name": "price",
              "type": "uint256"
            },
            {
              "internalType": "bool",
              "name": "checked",
              "type": "bool"
            },
            {
              "internalType": "bool",
              "name": "cancelled",
              "type": "bool"
            }
          ],
          "internalType": "struct DappAirBnb.BookingStruct",
          "name": "",
          "type": "tuple"
        }
      ],
      "stateMutability": "view",
      "type": "function"
    },
    {
      "inputs": [
        {
          "internalType": "uint256",
          "name": "aid",
          "type": "uint256"
        }
      ],
      "name": "getBookings",
      "outputs": [
        {
          "components": [
            {
              "internalType": "uint256",
              "name": "id",
              "type": "uint256"
            },
            {
              "internalType": "uint256",
              "name": "aid",
              "type": "uint256"
            },
            {
              "internalType": "address",
              "name": "tenant",
              "type": "address"
            },
            {
              "internalType": "uint256",
              "name": "date",
              "type": "uint256"
            },
            {
              "internalType": "uint256",
              "name": "price",
              "type": "uint256"
            },
            {
              "internalType": "bool",
              "name": "checked",
              "type": "bool"
            },
            {
              "internalType": "bool",
              "name": "cancelled",
              "type": "bool"
            }
          ],
          "internalType": "struct DappAirBnb.BookingStruct[]",
          "name": "",
          "type": "tuple[]"
        }
      ],
      "stateMutability": "view",
      "type": "function"
    },
    {
      "inputs": [
        {
          "internalType": "uint256",
          "name": "aid",
          "type": "uint256"
        }
      ],
      "name": "getQualifiedReviewers",
      "outputs": [
        {
          "internalType": "address[]",
          "name": "Tenants",
          "type": "address[]"
        }
      ],
      "stateMutability": "view",
      "type": "function"
    },
    {
      "inputs": [
        {
          "internalType": "uint256",
          "name": "aid",
          "type": "uint256"
        }
      ],
      "name": "getReviews",
      "outputs": [
        {
          "components": [
            {
              "internalType": "uint256",
              "name": "id",
              "type": "uint256"
            },
            {
              "internalType": "uint256",
              "name": "aid",
              "type": "uint256"
            },
            {
              "internalType": "string",
              "name": "reviewtext",
              "type": "string"
            },
            {
              "internalType": "uint256",
              "name": "timestamp",
              "type": "uint256"
            },
            {
              "internalType": "address",
              "name": "owner",
              "type": "address"
            }
          ],
          "internalType": "struct DappAirBnb.ReviewStruct[]",
          "name": "",
          "type": "tuple[]"
        }
      ],
      "stateMutability": "view",
      "type": "function"
    },
    {
      "inputs": [
        {
          "internalType": "uint256",
          "name": "aid",
          "type": "uint256"
        }
      ],
      "name": "getUnavailableDates",
      "outputs": [
        {
          "internalType": "uint256[]",
          "name": "",
          "type": "uint256[]"
        }
      ],
      "stateMutability": "view",
      "type": "function"
    },
    {
      "inputs": [],
      "name": "owner",
      "outputs": [
        {
          "internalType": "address",
          "name": "",
          "type": "address"
        }
      ],
      "stateMutability": "view",
      "type": "function"
    },
    {
      "inputs": [
        {
          "internalType": "uint256",
          "name": "aid",
          "type": "uint256"
        },
        {
          "internalType": "uint256",
          "name": "bookingId",
          "type": "uint256"
        }
      ],
      "name": "refoundBooking",
      "outputs": [],
      "stateMutability": "nonpayable",
      "type": "function"
    },
    {
      "inputs": [],
      "name": "renounceOwnership",
      "outputs": [],
      "stateMutability": "nonpayable",
      "type": "function"
    },
    {
      "inputs": [],
      "name": "securityFee",
      "outputs": [
        {
          "internalType": "uint256",
          "name": "",
          "type": "uint256"
        }
      ],
      "stateMutability": "view",
      "type": "function"
    },
    {
      "inputs": [],
      "name": "taxPercent",
      "outputs": [
        {
          "internalType": "uint256",
          "name": "",
          "type": "uint256"
        }
      ],
      "stateMutability": "view",
      "type": "function"
    },
    {
      "inputs": [
        {
          "internalType": "uint256",
          "name": "aid",
          "type": "uint256"
        }
      ],
      "name": "tenantBooked",
      "outputs": [
        {
          "internalType": "bool",
          "name": "",
          "type": "bool"
        }
      ],
      "stateMutability": "view",
      "type": "function"
    },
    {
      "inputs": [
        {
          "internalType": "address",
          "name": "newOwner",
          "type": "address"
        }
      ],
      "name": "transferOwnership",
      "outputs": [],
      "stateMutability": "nonpayable",
      "type": "function"
    },
    {
      "inputs": [
        {
          "internalType": "uint256",
          "name": "id",
          "type": "uint256"
        },
        {
          "internalType": "string",
          "name": "name",
          "type": "string"
        },
        {
          "internalType": "string",
          "name": "description",
          "type": "string"
        },
        {
          "internalType": "string",
          "name": "location",
          "type": "string"
        },
        {
          "internalType": "string",
          "name": "images",
          "type": "string"
        },
        {
          "internalType": "uint256",
          "name": "rooms",
          "type": "uint256"
        },
        {
          "internalType": "uint256",
          "name": "price",
          "type": "uint256"
        }
      ],
      "name": "updateAppartment",
      "outputs": [],
      "stateMutability": "nonpayable",
      "type": "function"
    }
  ],
  "bytecode": "0x60806040523480156200001157600080fd5b50604051620033f5380380620033f58339810160408190526200003491620000a2565b6200003f3362000052565b60018055600491909155600355620000c7565b600080546001600160a01b038381166001600160a01b0319831681178455604051919092169283917f8be0079c531659141344cd1fd0a4f28419497f9722a3daafe3b4186f6b6457e09190a35050565b60008060408385031215620000b657600080fd5b505080516020909101519092909150565b61331e80620000d76000396000f3fe60806040526004361061012a5760003560e01c80639f31a2be116100ab578063d68e13021161006f578063d68e13021461037c578063db2f80b714610392578063dec30d39146103bf578063df6e0222146103df578063f2fde38b146103f2578063f40109951461041257600080fd5b80639f31a2be146102a2578063b1c98099146102ed578063bdfdee761461030f578063c4452e061461032f578063d57a7b541461035c57600080fd5b8063715018a6116100f2578063715018a6146101f45780637541f41c1461020957806378419f611461022d5780638da5cb5b1461024d5780639d4a22551461027557600080fd5b8063010b58ee1461012f5780630bb9ce3314610151578063455b3070146101875780635bb0c5d6146101b45780635e2f98fd146101d4575b600080fd5b34801561013b57600080fd5b5061014f61014a3660046129cc565b61043f565b005b34801561015d57600080fd5b5061017161016c3660046129ee565b61068a565b60405161017e9190612a07565b60405180910390f35b34801561019357600080fd5b506101a76101a23660046129cc565b610833565b60405161017e9190612aa2565b3480156101c057600080fd5b5061014f6101cf366004612b67565b6108d7565b3480156101e057600080fd5b5061014f6101ef3660046129cc565b610ae1565b34801561020057600080fd5b5061014f610ed8565b34801561021557600080fd5b5061021f60045481565b60405190815260200161017e565b34801561023957600080fd5b5061014f6102483660046129cc565b610eec565b34801561025957600080fd5b506000546040516001600160a01b03909116815260200161017e565b34801561028157600080fd5b506102956102903660046129ee565b611076565b60405161017e9190612bf4565b3480156102ae57600080fd5b506102dd6102bd3660046129ee565b336000908152600b60209081526040808320938352929052205460ff1690565b604051901515815260200161017e565b3480156102f957600080fd5b506103026111b1565b60405161017e9190612d5f565b34801561031b57600080fd5b5061014f61032a366004612dc1565b61158c565b34801561033b57600080fd5b5061034f61034a3660046129ee565b611bbd565b60405161017e9190612e8b565b34801561036857600080fd5b5061014f610377366004612ea5565b611e91565b34801561038857600080fd5b5061021f60035481565b34801561039e57600080fd5b506103b26103ad3660046129ee565b6121a9565b60405161017e9190612f64565b3480156103cb57600080fd5b5061014f6103da3660046129ee565b61220b565b61014f6103ed366004612f9c565b6122ce565b3480156103fe57600080fd5b5061014f61040d36600461304e565b6125bc565b34801561041e57600080fd5b5061043261042d3660046129ee565b612635565b60405161017e9190613077565b6104476126f0565b6000828152600660205260408120805483908110610467576104676130b9565b600091825260208083206040805160e08101825260069094029091018054845260018101548484015260028101546001600160a01b0390811685840152600382015460608601526004820154608086015260059182015460ff808216151560a088015261010090910416151560c0860152888652925290922060070154909250339116148061050057506000546001600160a01b031633145b6105255760405162461bcd60e51b815260040161051c906130cf565b60405180910390fd5b8060a001511561056c5760405162461bcd60e51b815260206004820152601260248201527120b63932b0b23c9031b432b1b5b2b21034b760711b604482015260640161051c565b610574612749565b8160600151106105d55760405162461bcd60e51b815260206004820152602660248201527f4e6f7420616c6c6f7765642c20626f6f6b696e672064617465206e6f7420657860448201526518d95959195960d21b606482015260840161051c565b6000606460045483608001516105eb9190613112565b6105f59190613129565b905060006064600354846080015161060d9190613112565b6106179190613129565b6000868152600560205260409020600701546080850151919250610651916001600160a01b039091169061064c90859061314b565b612768565b61066c6106666000546001600160a01b031690565b83612768565b61067a836040015182612768565b50505061068660018055565b5050565b60606000805b6000848152600660205260409020548110156107025760008481526006602052604090208054829081106106c6576106c66130b9565b600091825260209091206005600690920201015460ff16156106f057816106ec8161315e565b9250505b806106fa8161315e565b915050610690565b508067ffffffffffffffff81111561071c5761071c612ab0565b604051908082528060200260200182016040528015610745578160200160208202803683370190505b5091506000805b60008581526006602052604090205481101561082b576000858152600660205260409020805482908110610782576107826130b9565b600091825260209091206005600690920201015460ff16156108195760008581526006602052604090208054829081106107be576107be6130b9565b60009182526020909120600260069092020101546001600160a01b031684836107e68161315e565b9450815181106107f8576107f86130b9565b60200260200101906001600160a01b031690816001600160a01b0316815250505b806108238161315e565b91505061074c565b505050919050565b61083b61291b565b600083815260066020526040902080548390811061085b5761085b6130b9565b60009182526020918290206040805160e08101825260069093029091018054835260018101549383019390935260028301546001600160a01b031690820152600382015460608201526004820154608082015260059091015460ff808216151560a084015261010090910416151560c082015290505b92915050565b60008281526008602052604090205460ff166109355760405162461bcd60e51b815260206004820152601860248201527f4170706172746d656e74206e6f7420617661696c61626c650000000000000000604482015260640161051c565b336000908152600b6020908152604080832085845290915290205460ff1661099f5760405162461bcd60e51b815260206004820152601860248201527f426f6f6b206669727374206265666f7265207265766965770000000000000000604482015260640161051c565b60008151116109f05760405162461bcd60e51b815260206004820152601760248201527f436f6d6d656e742063616e6e6f7420626520656d707479000000000000000000604482015260640161051c565b610a2b6040518060a001604052806000815260200160008152602001606081526020016000815260200160006001600160a01b031681525090565b60008381526007602090815260409182902054835282018490528101829052336080820152610a58612749565b6060820152600083815260076020908152604080832080546001818101835591855293839020855160059095020193845591840151918301919091558201518291906002820190610aa990826131ff565b5060608201516003820155608090910151600490910180546001600160a01b0319166001600160a01b03909216919091179055505050565b610ae96126f0565b6000828152600660205260408120805483908110610b0957610b096130b9565b60009182526020918290206040805160e08101825260069093029091018054835260018101549383019390935260028301546001600160a01b031690820152600382015460608201526004820154608082015260059091015460ff80821615801560a085015261010090920416151560c0830152909150610bdc5760405162461bcd60e51b815260206004820152602760248201527f41706172746d656e7420616c726561647920636865636b6564206f6e207468696044820152667320646174652160c81b606482015260840161051c565b6000838152600a602090815260408083206060850151845290915290205460ff16610c495760405162461bcd60e51b815260206004820152601a60248201527f446964206e6f7420626f6f6b206f6e2074686973206461746521000000000000604482015260640161051c565b6000546001600160a01b03163314610d245780604001516001600160a01b0316336001600160a01b031614610cb75760405162461bcd60e51b8152602060048201526014602482015273556e617574686f72697a65642074656e616e742160601b604482015260640161051c565b610cbf612749565b816060015111610d245760405162461bcd60e51b815260206004820152602a60248201527f43616e206e6f206c6f6e67657220726566756e642c20626f6f6b696e672064616044820152691d19481cdd185c9d195960b21b606482015260840161051c565b600083815260066020526040902080546001919084908110610d4857610d486130b9565b6000918252602080832060056006909302019190910180549315156101000261ff001990941693909317909255848152600a82526040808220606085015183528352808220805460ff19169055858252600990925290812054610dad9060019061314b565b60008581526009602052604081208054929350909183908110610dd257610dd26130b9565b9060005260206000200154905080600960008781526020019081526020016000208581548110610e0457610e046130b9565b906000526020600020018190555060096000868152602001908152602001600020805480610e3457610e346132bf565b60019003818190600052602060002001600090559055600060646003548560800151610e609190613112565b610e6a9190613129565b90506000610e79600283613129565b600088815260056020526040902060070154909150610ea1906001600160a01b031682612768565b610ebc610eb66000546001600160a01b031690565b82612768565b610eca338660800151612768565b505050505061068660018055565b610ee06127cd565b610eea6000612827565b565b610ef46126f0565b6000828152600660205260408120805483908110610f1457610f146130b9565b60009182526020918290206040805160e08101825260069093029091018054835260018101549383019390935260028301546001600160a01b0316908201819052600383015460608301526004830154608083015260059092015460ff808216151560a084015261010090910416151560c082015291503314610fa95760405162461bcd60e51b815260040161051c906130cf565b8060a0015115610ffb5760405162461bcd60e51b815260206004820152601b60248201527f446f75626c65206368656b63696e67206e6f7420616c6c6f7765640000000000604482015260640161051c565b60008381526006602052604090208054600191908490811061101f5761101f6130b9565b60009182526020808320600560069093020191909101805493151560ff19948516179055338252600b815260408083208784529091528120805490921660011790915560045460808301516064916105eb91613112565b606060076000838152602001908152602001600020805480602002602001604051908101604052809291908181526020016000905b828210156111a657838290600052602060002090600502016040518060a001604052908160008201548152602001600182015481526020016002820180546110f290613177565b80601f016020809104026020016040519081016040528092919081815260200182805461111e90613177565b801561116b5780601f106111405761010080835404028352916020019161116b565b820191906000526020600020905b81548152906001019060200180831161114e57829003601f168201915b505050918352505060038201546020808301919091526004909201546001600160a01b031660409091015290825260019290920191016110ab565b505050509050919050565b6060600060015b600254811161120157600081815260056020526040902060070154600160a81b900460ff166111ef57816111eb8161315e565b9250505b806111f98161315e565b9150506111b8565b508067ffffffffffffffff81111561121b5761121b612ab0565b60405190808252806020026020018201604052801561125457816020015b611241612965565b8152602001906001900390816112395790505b509150600060015b600254811161158657600081815260056020526040902060070154600160a81b900460ff16611574576005600082815260200190815260200160002060405180610160016040529081600082015481526020016001820180546112be90613177565b80601f01602080910402602001604051908101604052809291908181526020018280546112ea90613177565b80156113375780601f1061130c57610100808354040283529160200191611337565b820191906000526020600020905b81548152906001019060200180831161131a57829003601f168201915b5050505050815260200160028201805461135090613177565b80601f016020809104026020016040519081016040528092919081815260200182805461137c90613177565b80156113c95780601f1061139e576101008083540402835291602001916113c9565b820191906000526020600020905b8154815290600101906020018083116113ac57829003601f168201915b505050505081526020016003820180546113e290613177565b80601f016020809104026020016040519081016040528092919081815260200182805461140e90613177565b801561145b5780601f106114305761010080835404028352916020019161145b565b820191906000526020600020905b81548152906001019060200180831161143e57829003601f168201915b5050505050815260200160048201805461147490613177565b80601f01602080910402602001604051908101604052809291908181526020018280546114a090613177565b80156114ed5780601f106114c2576101008083540402835291602001916114ed565b820191906000526020600020905b8154815290600101906020018083116114d057829003601f168201915b5050509183525050600582015460208201526006820154604082015260078201546001600160a01b038116606083015260ff600160a01b8204811615156080840152600160a81b90910416151560a082015260089091015460c09091015284836115568161315e565b945081518110611568576115686130b9565b60200260200101819052505b8061157e8161315e565b91505061125c565b50505090565b60008781526008602052604090205460ff166115e05760405162461bcd60e51b8152602060048201526013602482015272105c185c9d1b595b9d081b9bdd08199bdd5b99606a1b604482015260640161051c565b6000878152600560205260409020600701546001600160a01b031633146116195760405162461bcd60e51b815260040161051c906130cf565b60008651116116615760405162461bcd60e51b81526020600482015260146024820152734e616d652063616e6e6f7420626520656d70747960601b604482015260640161051c565b60008551116116b25760405162461bcd60e51b815260206004820152601b60248201527f4465736372697074696f6e2063616e6e6f7420626520656d7074790000000000604482015260640161051c565b60008451116116fe5760405162461bcd60e51b81526020600482015260186024820152774c6f636174696f6e2063616e6e6f7420626520656d70747960401b604482015260640161051c565b60008351116117485760405162461bcd60e51b8152602060048201526016602482015275496d616765732063616e6e6f7420626520656d70747960501b604482015260640161051c565b600082116117905760405162461bcd60e51b8152602060048201526015602482015274526f6f6d732063616e6e6f7420626520656d70747960581b604482015260640161051c565b600081116117d85760405162461bcd60e51b815260206004820152601560248201527450726963652063616e6e6f7420626520656d70747960581b604482015260640161051c565b600060056000898152602001908152602001600020604051806101600160405290816000820154815260200160018201805461181390613177565b80601f016020809104026020016040519081016040528092919081815260200182805461183f90613177565b801561188c5780601f106118615761010080835404028352916020019161188c565b820191906000526020600020905b81548152906001019060200180831161186f57829003601f168201915b505050505081526020016002820180546118a590613177565b80601f01602080910402602001604051908101604052809291908181526020018280546118d190613177565b801561191e5780601f106118f35761010080835404028352916020019161191e565b820191906000526020600020905b81548152906001019060200180831161190157829003601f168201915b5050505050815260200160038201805461193790613177565b80601f016020809104026020016040519081016040528092919081815260200182805461196390613177565b80156119b05780601f10611985576101008083540402835291602001916119b0565b820191906000526020600020905b81548152906001019060200180831161199357829003601f168201915b505050505081526020016004820180546119c990613177565b80601f01602080910402602001604051908101604052809291908181526020018280546119f590613177565b8015611a425780601f10611a1757610100808354040283529160200191611a42565b820191906000526020600020905b815481529060010190602001808311611a2557829003601f168201915b5050509183525050600582810154602080840191909152600684015460408085019190915260078501546001600160a01b03811660608087019190915260ff600160a01b830481161515608080890191909152600160a81b90930416151560a08088019190915260089097015460c0968701528784018f81528884018f90529088018d90529087018b9052948601899052928501879052845160009081529190522082518155905191925082916001820190611afe90826131ff565b5060408201516002820190611b1390826131ff565b5060608201516003820190611b2890826131ff565b5060808201516004820190611b3d90826131ff565b5060a0820151600582015560c0820151600682015560e08201516007820180546101008501516101208601511515600160a81b0260ff60a81b19911515600160a01b026001600160a81b03199093166001600160a01b03909516949094179190911716919091179055610140909101516008909101555050505050505050565b611bc5612965565b600560008381526020019081526020016000206040518061016001604052908160008201548152602001600182018054611bfe90613177565b80601f0160208091040260200160405190810160405280929190818152602001828054611c2a90613177565b8015611c775780601f10611c4c57610100808354040283529160200191611c77565b820191906000526020600020905b815481529060010190602001808311611c5a57829003601f168201915b50505050508152602001600282018054611c9090613177565b80601f0160208091040260200160405190810160405280929190818152602001828054611cbc90613177565b8015611d095780601f10611cde57610100808354040283529160200191611d09565b820191906000526020600020905b815481529060010190602001808311611cec57829003601f168201915b50505050508152602001600382018054611d2290613177565b80601f0160208091040260200160405190810160405280929190818152602001828054611d4e90613177565b8015611d9b5780601f10611d7057610100808354040283529160200191611d9b565b820191906000526020600020905b815481529060010190602001808311611d7e57829003601f168201915b50505050508152602001600482018054611db490613177565b80601f0160208091040260200160405190810160405280929190818152602001828054611de090613177565b8015611e2d5780601f10611e0257610100808354040283529160200191611e2d565b820191906000526020600020905b815481529060010190602001808311611e1057829003601f168201915b5050509183525050600582015460208201526006820154604082015260078201546001600160a01b038116606083015260ff600160a01b8204811615156080840152600160a81b90910416151560a082015260089091015460c09091015292915050565b6000865111611ed95760405162461bcd60e51b81526020600482015260146024820152734e616d652063616e6e6f7420626520656d70747960601b604482015260640161051c565b6000855111611f2a5760405162461bcd60e51b815260206004820152601b60248201527f4465736372697074696f6e2063616e6e6f7420626520656d7074790000000000604482015260640161051c565b6000845111611f765760405162461bcd60e51b81526020600482015260186024820152774c6f636174696f6e2063616e6e6f7420626520656d70747960401b604482015260640161051c565b6000835111611fc05760405162461bcd60e51b8152602060048201526016602482015275496d616765732063616e6e6f7420626520656d70747960501b604482015260640161051c565b600082116120085760405162461bcd60e51b8152602060048201526015602482015274526f6f6d732063616e6e6f7420626520656d70747960581b604482015260640161051c565b600081116120505760405162461bcd60e51b815260206004820152601560248201527450726963652063616e6e6f7420626520656d70747960581b604482015260640161051c565b61205e600280546001019055565b612066612965565b60025481526020810187905260408101869052606081018590526080810184905260a0810183905260c081018290523360e08201526120a3612749565b61014082015280516000908152600860209081526040808320805460ff1916600190811790915584518452600583529220835181559083015183928201906120eb90826131ff565b506040820151600282019061210090826131ff565b506060820151600382019061211590826131ff565b506080820151600482019061212a90826131ff565b5060a0820151600582015560c0820151600682015560e08201516007820180546101008501516101208601511515600160a81b0260ff60a81b19911515600160a01b026001600160a81b03199093166001600160a01b039095169490941791909117169190911790556101409091015160089091015550505050505050565b6000818152600960209081526040918290208054835181840281018401909452808452606093928301828280156121ff57602002820191906000526020600020905b8154815260200190600101908083116121eb575b50505050509050919050565b60008181526008602052604090205460ff1661225f5760405162461bcd60e51b8152602060048201526013602482015272105c185c9d1b595b9d081b9bdd08199bdd5b99606a1b604482015260640161051c565b6000818152600560205260409020600701546001600160a01b031633146122985760405162461bcd60e51b815260040161051c906130cf565b6000908152600860209081526040808320805460ff1916905560059091529020600701805460ff60a81b1916600160a81b179055565b805160008381526005602052604081206006015490916122ed91613112565b905060006064600354836123019190613112565b61230b9190613129565b60008581526008602052604090205490915060ff166123635760405162461bcd60e51b815260206004820152601460248201527341706172746d656e74206e6f7420666f756e642160601b604482015260640161051c565b61236d81836132d5565b3410156123b15760405162461bcd60e51b8152602060048201526012602482015271496e73756666696369656e742066756e642160701b604482015260640161051c565b6123bb8484612877565b6124075760405162461bcd60e51b815260206004820152601f60248201527f4f6e65206f72206d6f7265206461746573206e6f7420617661696c61626c6500604482015260640161051c565b60005b83518110156125b55761241b61291b565b60008681526006602090815260409182902054835282018790523390820152845185908390811061244e5761244e6130b9565b60209081029190910181015160608301908152600088815260058084526040808320600690810154608088019081528c85528187528285208054600181810183559187528887208a51919094029093019283558888015190830155828801516002830180546001600160a01b039092166001600160a01b0319909216919091179055945160038201559351600485015560a086015193909101805460c087015115156101000261ff00199515159590951661ffff19909116179390931790925588815260099092529020855186908490811061252c5761252c6130b9565b602090810291909101810151825460018181018555600094855283852090910191909155888352600a90915260408220875191929091889086908110612574576125746130b9565b6020026020010151815260200190815260200160002060006101000a81548160ff0219169083151502179055505080806125ad9061315e565b91505061240a565b5050505050565b6125c46127cd565b6001600160a01b0381166126295760405162461bcd60e51b815260206004820152602660248201527f4f776e61626c653a206e6577206f776e657220697320746865207a65726f206160448201526564647265737360d01b606482015260840161051c565b61263281612827565b50565b606060066000838152602001908152602001600020805480602002602001604051908101604052809291908181526020016000905b828210156111a65760008481526020908190206040805160e08101825260068602909201805483526001808201548486015260028201546001600160a01b03169284019290925260038101546060840152600481015460808401526005015460ff808216151560a085015261010090910416151560c0830152908352909201910161266a565b6002600154036127425760405162461bcd60e51b815260206004820152601f60248201527f5265656e7472616e637947756172643a207265656e7472616e742063616c6c00604482015260640161051c565b6002600155565b6000612757426103e8613112565b612763906103e86132d5565b905090565b6000826001600160a01b03168260405160006040518083038185875af1925050503d80600081146127b5576040519150601f19603f3d011682016040523d82523d6000602084013e6127ba565b606091505b50509050806127c857600080fd5b505050565b6000546001600160a01b03163314610eea5760405162461bcd60e51b815260206004820181905260248201527f4f776e61626c653a2063616c6c6572206973206e6f7420746865206f776e6572604482015260640161051c565b600080546001600160a01b038381166001600160a01b0319831681178455604051919092169283917f8be0079c531659141344cd1fd0a4f28419497f9722a3daafe3b4186f6b6457e09190a35050565b60006001815b83518110156129135760005b6000868152600960205260409020548110156129005760008681526009602052604090208054829081106128bf576128bf6130b9565b90600052602060002001548583815181106128dc576128dc6130b9565b6020026020010151036128ee57600092505b806128f88161315e565b915050612889565b508061290b8161315e565b91505061287d565b509392505050565b6040518060e00160405280600081526020016000815260200160006001600160a01b0316815260200160008152602001600081526020016000151581526020016000151581525090565b6040518061016001604052806000815260200160608152602001606081526020016060815260200160608152602001600081526020016000815260200160006001600160a01b03168152602001600015158152602001600015158152602001600081525090565b600080604083850312156129df57600080fd5b50508035926020909101359150565b600060208284031215612a0057600080fd5b5035919050565b6020808252825182820181905260009190848201906040850190845b81811015612a485783516001600160a01b031683529284019291840191600101612a23565b50909695505050505050565b80518252602080820151908301526040808201516001600160a01b031690830152606080820151908301526080808201519083015260a08082015115159083015260c0908101511515910152565b60e081016108d18284612a54565b634e487b7160e01b600052604160045260246000fd5b604051601f8201601f1916810167ffffffffffffffff81118282101715612aef57612aef612ab0565b604052919050565b600082601f830112612b0857600080fd5b813567ffffffffffffffff811115612b2257612b22612ab0565b612b35601f8201601f1916602001612ac6565b818152846020838601011115612b4a57600080fd5b816020850160208301376000918101602001919091529392505050565b60008060408385031215612b7a57600080fd5b82359150602083013567ffffffffffffffff811115612b9857600080fd5b612ba485828601612af7565b9150509250929050565b6000815180845260005b81811015612bd457602081850181015186830182015201612bb8565b506000602082860101526020601f19601f83011685010191505092915050565b60006020808301818452808551808352604092508286019150828160051b87010184880160005b83811015612c8457603f19898403018552815160a0815185528882015189860152878201518189870152612c5182870182612bae565b606084810151908801526080938401516001600160a01b0316939096019290925250509386019390860190600101612c1b565b509098975050505050505050565b6000610160825184526020830151816020860152612cb282860182612bae565b91505060408301518482036040860152612ccc8282612bae565b91505060608301518482036060860152612ce68282612bae565b91505060808301518482036080860152612d008282612bae565b91505060a083015160a085015260c083015160c085015260e0830151612d3160e08601826001600160a01b03169052565b5061010083810151151590850152610120808401511515908501526101409283015192909301919091525090565b6000602080830181845280855180835260408601915060408160051b870101925083870160005b82811015612db457603f19888603018452612da2858351612c92565b94509285019290850190600101612d86565b5092979650505050505050565b600080600080600080600060e0888a031215612ddc57600080fd5b87359650602088013567ffffffffffffffff80821115612dfb57600080fd5b612e078b838c01612af7565b975060408a0135915080821115612e1d57600080fd5b612e298b838c01612af7565b965060608a0135915080821115612e3f57600080fd5b612e4b8b838c01612af7565b955060808a0135915080821115612e6157600080fd5b50612e6e8a828b01612af7565b93505060a0880135915060c0880135905092959891949750929550565b602081526000612e9e6020830184612c92565b9392505050565b60008060008060008060c08789031215612ebe57600080fd5b863567ffffffffffffffff80821115612ed657600080fd5b612ee28a838b01612af7565b97506020890135915080821115612ef857600080fd5b612f048a838b01612af7565b96506040890135915080821115612f1a57600080fd5b612f268a838b01612af7565b95506060890135915080821115612f3c57600080fd5b50612f4989828a01612af7565b9350506080870135915060a087013590509295509295509295565b6020808252825182820181905260009190848201906040850190845b81811015612a4857835183529284019291840191600101612f80565b60008060408385031215612faf57600080fd5b8235915060208084013567ffffffffffffffff80821115612fcf57600080fd5b818601915086601f830112612fe357600080fd5b813581811115612ff557612ff5612ab0565b8060051b9150613006848301612ac6565b818152918301840191848101908984111561302057600080fd5b938501935b8385101561303e57843582529385019390850190613025565b8096505050505050509250929050565b60006020828403121561306057600080fd5b81356001600160a01b0381168114612e9e57600080fd5b6020808252825182820181905260009190848201906040850190845b81811015612a48576130a6838551612a54565b9284019260e09290920191600101613093565b634e487b7160e01b600052603260045260246000fd5b602080825260139082015272556e617574686f72697a656420656e7469747960681b604082015260600190565b634e487b7160e01b600052601160045260246000fd5b80820281158282048414176108d1576108d16130fc565b60008261314657634e487b7160e01b600052601260045260246000fd5b500490565b818103818111156108d1576108d16130fc565b600060018201613170576131706130fc565b5060010190565b600181811c9082168061318b57607f821691505b6020821081036131ab57634e487b7160e01b600052602260045260246000fd5b50919050565b601f8211156127c857600081815260208120601f850160051c810160208610156131d85750805b601f850160051c820191505b818110156131f7578281556001016131e4565b505050505050565b815167ffffffffffffffff81111561321957613219612ab0565b61322d816132278454613177565b846131b1565b602080601f831160018114613262576000841561324a5750858301515b600019600386901b1c1916600185901b1785556131f7565b600085815260208120601f198616915b8281101561329157888601518255948401946001909101908401613272565b50858210156132af5787850151600019600388901b60f8161c191681555b5050505050600190811b01905550565b634e487b7160e01b600052603160045260246000fd5b808201808211156108d1576108d16130fc56fea264697066735822122036bd992895fddbebf6f5277f1eb097b67d2258281fc191ebde17e677212df4b764736f6c63430008130033",
  "linkReferences": {},
  "deployedLinkReferences": {}
}